:100000000C941C010C9444010C9444010C94440184
:100010000C9444010C9444010C9444010C94A50BE1
:100020000C9444010C9444010C9444010C9444013C
:100030000C9444010C9444010C9444010C9444012C
:100040000C945B0B0C9444010C944E0C0C944401E6
:100050000C94250C0C9444010C9444010C94440120
:100060000C9444010C94440107634236B79BD8A713
:100070001A39685618AEBAAB558C1D3CB7CC5763CD
:10008000BD6DEDFD753EF6177231BF000000803F7B
:1000900008000000BE922449123EABAAAA2ABECD97
:1000A000CCCC4C3E00000080BEABAAAAAA3E000009
:1000B0000000BF000000803F000000000008417801
:1000C000D3BB4387D1133D190E3CC3BD4282AD2B38
:1000D0003E68EC8276BED98FE1A93E4C80EFFFBE30
:1000E00001C4FF7F3F000000000000407A10F35A77
:1000F00000A0724E18090010A5D4E80000E8764868
:10010000170000E40B54020000CA9A3B000000E113
:10011000F505000080969800000040420F000000A6
:10012000A08601000000102700000000E803000086
:1001300000006400000000000A0000000000010050
:10014000000000002C76D888DC674F0823DFC1DF71
:10015000AE59E1B1B796E5E3E453C63AE651997674
:1001600096E8E6C28426EB898C9B62ED407C6FFCAE
:10017000EFBC9C9F40F2BAA56FA5F490055A2AF7F0
:100180005C936B6CF9676DC11BFCE0E40D47FEF5F9
:1001900020E6B500D0ED902E030094357705008061
:1001A000841E080000204E0A000000C80C333333C0
:1001B000330F986E12831141EF8D2114893BE65560
:1001C00016CFFEE6DB18D1844B381BF77C1D901D43
:1001D000A4BBE424203284725E228100C9F124ECA5
:1001E000A1E53D270200000000240027002A0000AE
:1001F000000000250028002B00040404040404046B
:1002000004020202020202030303030303010204C5
:100210000810204080010204081020010204081088
:100220002000000008000201000003040700000095
:10023000000000000000D71011241FBECFEFD4E053
:10024000DEBFCDBF22E0A8E2B1E001C01D92A63022
:10025000B207E1F711E0A0E0B1E0EAE8F4E302C0A0
:1002600005900D92A832B107D9F711E0CCE1D1E0A9
:1002700004C02197FE010E944B18CB31D107C9F76A
:100280000E94800C0C94431A0C9400008091C000D2
:1002900085FFFCCF9091010280910002981789F0B0
:1002A000E0910002F0E0E052FE4F90818091000268
:1002B0008F5F80930002803210F0109200029093C2
:1002C000C6000895909101029F31C8F490910102F7
:1002D0009F5F292F30E02F5F3F4F40910002421770
:1002E0001306D9F320910002921741F0E091010228
:1002F000F0E0E052FE4F808390930102089590E079
:10030000E8CF0F931F93CF938C01C0E0F801EC0F5F
:10031000F11D8081882331F00E9462010E94460114
:10032000CF5FF4CFCF911F910F9108950E9481016B
:100330008DE00E9462018AE00E9462010C944601F5
:1003400084EA8093BC008091BC0087FFFCCF0895B5
:100350008093BB0084E88093BC008091BC0087FF41
:10036000FCCF0895CF93C82F0E94A0018C2F880F37
:10037000CF910C94A80180910901823068F08150DE
:100380008093090184EC8093BC008091BC0087FFBE
:10039000FCCF8091BB0008951092090184E88093FE
:1003A000BC008091BC0087FFFCCF80910A018823AC
:1003B00021F084E98093BC00ECCF0E94A001E9CF3A
:1003C0008F929F92AF92BF92CF92DF92EF92FF9265
:1003D0001F93CF93DF93CDB7DEB72A970FB6F8946C
:1003E000DEBF0FBECDBF9E012F5F3F4F690110E002
:1003F00079012AE0822E912CA12CB12CA501940127
:100400000E942918F60161936F01B901CA016115B3
:1004100071058105910521F01F5F1A3079F710E011
:10042000F701E10FF11D17FDFA958081805D0E94B3
:1004300062011150A8F72A960FB6F894DEBF0FBEDE
:10044000CDBFDF91CF911F91FF90EF90DF90CF90C4
:10045000BF90AF909F908F900895FF920F931F933E
:10046000CF93DF938C01DC011496FC90D0E0C0E0C8
:10047000CF15C8F4F80184819581C817D90728F4ED
:100480000190F081E02D309759F410929701E7E93F
:10049000F1E080810E9462010E9446012196E8CF2E
:1004A000EC0FFD1FF6CFDF91CF911F910F91FF90C1
:1004B000089590E0FC01EF5DFD4F2491FC01E35FA6
:1004C000FD4F3491FC01E750FE4FE491EE23C9F05B
:1004D000222339F0233001F1A8F4213019F1223020
:1004E00029F1F0E0EE0FFF1FE151FE4FA591B4910D
:1004F0008FB7F894EC91611126C030953E233C9360
:100500008FBF08952730A9F02830C9F0243049F76B
:10051000809180008F7D03C0809180008F778093D1
:100520008000DFCF84B58F7784BDDBCF84B58F7D2E
:10053000FBCF8091B0008F778093B000D2CF8091B5
:10054000B0008F7DF9CF3E2BDACFCF93DF9390E0D1
:10055000FC01E35FFD4F249187509E4FFC01849185
:100560008823C9F090E0880F991FFC01EB51FE4FE2
:10057000A591B491FC01E151FE4FC591D491611157
:100580000DC09FB7F8948C91209582238C9388811D
:10059000282328839FBFDF91CF910895623051F4C3
:1005A0009FB7F8943C91822F809583238C93E881A8
:1005B0002E2BEFCF8FB7F894EC912E2B2C938FBF6F
:1005C000EACF62E082E10E94A50262E083E10E943C
:1005D000A50288E48093B8001092B90008953FB74F
:1005E000F8948091910190919201A0919301B09122
:1005F000940126B5A89B05C02F3F19F00196A11DB7
:10060000B11D3FBFBA2FA92F982F8827BC01CD015C
:10061000620F711D811D911D42E0660F771F881FBB
:10062000991F4A95D1F708958F929F92AF92BF92EA
:10063000CF92DF92EF92FF924B015C010E94EF029A
:100640006B017C010E94EF026C197D098E099F09E4
:10065000683E734081059105A8F321E0821A910854
:10066000A108B10888EEC80E83E0D81EE11CF11C79
:1006700081149104A104B10429F7FF90EF90DF9059
:10068000CF90BF90AF909F908F9008958EBD0DB486
:1006900007FEFDCF08958FEF0E9446038EB50895A3
:1006A0000F931F93CF93DF93C0919501D091960143
:1006B0002197CD3F8FEFD80721F080E00E944603BD
:1006C000F7CF0E944B038F71853061F0D1E0C0E01D
:1006D0002A9A0E944B038D2F9C2FDF91CF911F915F
:1006E0000F91089508E813E1C0E9D1E00E944B039F
:1006F0008F3F49F00115110549F3CE010197F1F73C
:1007000001501109F3CFD1E0C0E0012B09F3D0E093
:10071000DFCFFF920F931F93CF93DF93F82EEA0161
:10072000162F072F83E58CBD1DBC2A9A0E944B0310
:100730002A980E944B038F2D0E944603802F0E940F
:100740004603812F0E9446038D2F0E9446038C2F63
:100750000E94460381E00E944603CAE00E944B03C8
:1007600087FF02C0C150D1F7DF91CF911F910F9148
:10077000FF900895EF92FF920F931F93CF93DF9313
:100780000097C9F0EA018C01209791F1E090950162
:10079000F0909601E114F10459F1F80181918F0173
:1007A0000E944603F1E0EF1AF108F0929601E09200
:1007B00095012197E9CF411551056105710509F1B1
:1007C00089E0440F551F661F771F8A95D1F788E58A
:1007D0000E94890381111DC08FEF0E9446038EEF96
:1007E0000E94460380E092E09093960180939501E9
:1007F00090E080E0DF91CF911F910F91FF90EF90FB
:100800000895DF91CF911F910F91FF90EF900C947D
:10081000500381E090E0EECFCF93DF93D62FC42F2B
:100820000E94B2018D2F0E94A8018C2F0E94A80166
:1008300084E98093BC00DF91CF9108952F923F927D
:100840004F925F926F927F928F929F92AF92BF92E0
:10085000CF92DF92EF92FF920F931F93CF93DF938C
:10086000CDB7DEB768970FB6F894DEBF0FBECDBF29
:100870009E012F5F3F4F790117EFA4E9DA2E01E0C7
:1008800086E70E94B201812F0E94A801D092BC008D
:1008900000930A01009309010E94A0018DEE0E94BD
:1008A000A80180910901813031F40E94BB0190E0E0
:1008B000F701918380831F5FF2E0EF0EF11C1F3F71
:1008C000F9F629813A813A8B298B8B819C819C8B0B
:1008D0008B8BED81FE81FE8BED8B6F8170E090E064
:1008E00080E0982F872F762F66272985620F711D4C
:1008F000811D911D982F872F762F66272B853C858C
:10090000207F3327620F731F811D911DF4E09595A1
:10091000879577956795FA95D1F70E94A2132B01D9
:100920003C01609198017091990190E080E00E94F3
:10093000A0134B015C0120E030E040E057E3C3012D
:10094000B2010E9401146B017C0120E030E040E024
:1009500059E3C501B4010E9401149B01AC01C70118
:10096000B6010E94F6146B017C0120E030E040E803
:1009700058E3C301B2010E9401142B013C0120E0A5
:1009800030E040E85AE3C501B4010E9401149B0124
:10099000AC01C301B2010E94F6144B015C016091ED
:1009A0009A0170919B01072E000C880B990B0E94F5
:1009B000A2139B01AC01C501B4010E9401144B01BB
:1009C0005C0160919C0170919D01072E000C880BC9
:1009D000990B0E94A2132B013C01A7019601C701AC
:1009E000B6010E9401149B01AC01C301B2010E9437
:1009F00001149B01AC01C501B4010E94F7140E94CF
:100A000011166093B8017093B9018093BA01909365
:100A1000BB010E94A21320E030E040E05FE30E94AF
:100A2000011420E030E04AE757E40E94F6146B011D
:100A30007C010091A8011091A9012090A60130909D
:100A4000A7012091A4013091A501388F2F8B6091CF
:100A5000A2017091A301072E000C880B990B0E9434
:100A6000A213A70196010E940114A70196010E94FA
:100A7000011420E030E040E056E30E9401144B01F5
:100A80005C016091A0017091A101072E000C880B00
:100A9000990B0E94A213A70196010E9401149B01C9
:100AA000AC01C501B4010E94F71420E030E040E041
:100AB00056E30E94011420E030E040E058E30E9439
:100AC000011420E030E040E85FE30E94F7144B019E
:100AD0005C0160919E0170919F0190E080E00E9416
:100AE000A013A50194010E9401144B015C0120E0B8
:100AF00030E0A9010E949B13882309F402C1A701D9
:100B00009601C701B6010E9401142B013C01B801F6
:100B1000110F880B990B0E94A2139B01AC01C3011A
:100B2000B2010E94011420E030E040E058E30E944E
:100B300001142B013C01B101330C880B990B0E946D
:100B4000A213A70196010E9401149B01AC010E940F
:100B5000F714A30192010E94F71420E030E040E86E
:100B60005EE30E9401146B017C0169897A89772711
:100B700090E080E0982F872F762F66272B893C897D
:100B80003327620F731F811D911D982F872F762F9A
:100B900066272D893E89207F3327620F731F811DB1
:100BA000911D44E095958795779567954A95D1F77E
:100BB0000E94A2139B01AC0160E070E080E899E420
:100BC0000E94F6142B013C01EF89F88DBF01FF0F45
:100BD000880B990B0E94A21320E030E040E857E414
:100BE0000E940114A70196010E94F71420E030E052
:100BF00040E859E30E9401149B01AC01C301B2011A
:100C00000E94F61420E030E543EC55E40E94011404
:100C1000A50194010E9463156B017C016091AE01F6
:100C20007091AF01072E000C880B990B0E94A21344
:100C3000A70196010E940114A70196010E940114C8
:100C400020E030E040E050E30E9401144B015C01E1
:100C50006091AC017091AD01072E000C880B990BCF
:100C60000E94A213A70196010E94011420E030E027
:100C700040E058E30E9401149B01AC01C501B4019E
:100C80000E94F7144B015C016091AA017091AB01C5
:100C9000072E000C880B990B0E94A2139B01AC013C
:100CA000C501B4010E94F71420E030E040E85DE3A4
:100CB0000E940114A70196010E94F7140E94DA1500
:100CC0002093B4013093B5014093B6015093B7011E
:100CD00068960FB6F894DEBF0FBECDBFDF91CF91FF
:100CE0001F910F91FF90EF90DF90CF90BF90AF904A
:100CF0009F908F907F906F905F904F903F902F903C
:100D00000895C12CD12C760189CFBC01990F880B95
:100D1000990B0C94E0018F929F92AF92BF92CF9269
:100D2000DF92EF92FF926B017C0120E030E0A9019D
:100D30000E949B1387FF07C08DE20E946201F7FAB1
:100D4000F094F7F8F094C701B6010E9418164B0111
:100D50005C010E94E0018EE20E946201C501B401C3
:100D60000E94A0139B01AC01C701B6010E94F614BA
:100D700020E030E040E251E40E9401144B015C01AC
:100D80000E941816F62E70E090E080E00E94E001CC
:100D90006F2D70E090E080E00E94A2139B01AC01F7
:100DA000C501B4010E94F61420E030E040E251E4B5
:100DB0000E9401140E94181670E090E080E0FF90FD
:100DC000EF90DF90CF90BF90AF909F908F900C945A
:100DD000E001EF92FF921F93CF93DF93C82F162F5E
:100DE000D42F79010E94B201812F0E94A80184E9C9
:100DF0008093BC0081E080930A01D09309010E9496
:100E0000A0018C2F880F81600E94A801C0E0809112
:100E10000901882351F011E01C0FCE0DDF2DD11DEB
:100E20000E94BB018883C12FF2CFDF91CF911F9128
:100E3000FF90EF900895CF93DF93C8E9D1E06C8DD8
:100E40007D8D8E8D9F8D0E94A01320E836EE45EC9F
:100E500057E40E94631521E03EED42E45EE30E9408
:100E600057169B01AC0160E070E080E89FE30E94B0
:100E7000F61420E03AE24DE257E40E940114288D76
:100E8000398D4A8D5B8D0E94F614DF91CF910895C4
:100E90000F931F93CF93DF93CDB7DEB76DB77EB7B8
:100EA000DC0114964D915C91EDB7FEB7E41BF50B98
:100EB0000FB6F894FEBF0FBEEDBF0DB71EB70F5FA4
:100EC0001F4F30E020E04217530799F0DC01ED910D
:100ED000FC91309759F410929701E7E9F1E0E08135
:100EE000D801ED938D012F5F3F4FEDCFE20FF31F40
:100EF000F6CF0FB6F8947EBF0FBE6DBFDF91CF91D6
:100F00001F910F910895FC01808191810C94ED183F
:100F1000EF92FF920F931F93CF93DF93EC017B012E
:100F20008A0188819981009729F02A813B812417C1
:100F3000350788F4B8016F5F7F4F0E9476190097DC
:100F400091F0998388831B830A832C813D81232B15
:100F500011F4FC0110821D830C83B70188819981F3
:100F60000E943C1A0CC088819981009711F00E9460
:100F7000ED18198218821D821C821B821A82CE01F2
:100F8000DF91CF911F910F91FF90EF900895FB019A
:100F900001900020E9F73197AF01461B570B0C94E5
:100FA00088070F931F93CF93DF93CDB7DEB7629778
:100FB0000FB6F894DEBF0FBECDBF8C01CB01F80198
:100FC0001182108213821282158214824AE0BE01BD
:100FD0006F5F7F4F0E94FE10BE016F5F7F4FC801A1
:100FE0000E94C70762960FB6F894DEBF0FBECDBF52
:100FF000DF91CF911F910F910895EF92FF920F9380
:101000001F93CF93DF93CDB7DEB7A1970FB6F894B8
:10101000DEBF0FBECDBF7C01CB01BA01F70111824B
:10102000108213821282158214828E010F5F1F4F6D
:1010300022E044E00E94E010009789F0BC01C70163
:101040000E94C707A1960FB6F894DEBF0FBECDBFB2
:10105000DF91CF911F910F91FF90EF900895F701CD
:1010600080819181009711F00E94ED18F7011182A3
:1010700010821582148213821282E4CFFB01DC01FC
:1010800011961C921E9213961C921E921297159600
:101090001C921E9214978617970749F06081718100
:1010A0006115710521F0448155810C9488070895DC
:1010B0004F925F926F927F928F92AF92CF92DF9218
:1010C000EF92FF920F931F93CF93DF93CDB7DEB7CD
:1010D0002A970FB6F894DEBF0FBECDBF2A013B01A1
:1010E0000F83188729873A87BC01CE0101960E9499
:1010F0003E08CE0101960E942D02CE0101960E946B
:10110000830781E191E00E94810177FE0BC08DE2AF
:101110000E9462017094609450944094411C511C50
:10112000611C711CC301B2010E94E00181E191E0E8
:101130000E9481016F81788589859A850E948B063E
:1011400081E191E00E948101C701B6010E948B06F6
:1011500081E191E00E9481018A2D90E00E94850644
:1011600081E191E00E948101882D90E00E94850636
:1011700081E191E00E9481018B8D90E00E948506C3
:1011800081E191E00E9481018C8D90E00E948506B2
:1011900083E191E00E9481012A960FB6F894DEBFA8
:1011A0000FBECDBFDF91CF911F910F91FF90EF90B8
:1011B000DF90CF90AF908F907F906F905F904F9027
:1011C0000895FC011182108213821282158214820A
:1011D000FB0101900020E9F73197AF01461B570B47
:1011E0000C9488074F925F926F927F928F929F929A
:1011F000AF92BF92CF92DF92EF92FF920F931F9325
:10120000CF93DF93CDB7DEB7AC970FB6F894DEBFC0
:101210000FBECDBF2A013B0109A71AA72BA73CA7E8
:10122000BC01CE0101960E943E08CE0101960E94AB
:101230004807CE0101960E94830761E171E0CE016B
:1012400001960E94E108CE0101960E944807CE0156
:1012500001960E9483071CA21BA21EA21DA218A613
:101260001FA22AE0AE014F5F5F4FC301B2010E948F
:101270000911BE016F5F7F4FCE0183960E94C707A1
:10128000CE0183960E944807CE0183960E94830771
:1012900061E171E0CE0101960E94E108CE01019664
:1012A0000E944807CE0101960E94830749A55AA5CE
:1012B0006BA57CA5CE0101960E94FD07CE0101968B
:1012C0000E944807CE0101960E94830761E171E008
:1012D000CE0101960E94E108CE0101960E944807C6
:1012E000CE0101960E948307B701A601CE010196A7
:1012F0000E94FD07CE0101960E944807CE0101968B
:101300000E94830761E171E0CE0101960E94E1082D
:10131000CE0101960E944807CE0101960E948307E4
:10132000B501A401CE0101960E94FD07CE010196F0
:101330000E944807CE0101960E94830761E171E097
:10134000CE0101960E94E108CE0101960E94480755
:10135000CE0101960E94830723964CAD5DAD6EAD24
:101360007FAD2397CE0101960E94FD07CE01019625
:101370000E944807CE0101960E94830761E171E057
:10138000CE0101960E94E108CE0101960E94480715
:10139000CE0101960E94830727964CAD5DAD6EADE0
:1013A0007FAD2797CE0101960E94FD07CE010196E1
:1013B0000E944807CE0101960E94830761E171E017
:1013C000CE0101960E94E108CE0101960E944807D5
:1013D000CE0101960E9483072B964CAD5DAD6EAD9C
:1013E0007FAD2B97CE0101960E94FD07CE0101969D
:1013F0000E944807CE0101960E94830761E171E0D7
:10140000CE0101960E94E108CE0101960E94480794
:10141000CE0101960E9483072F964CAD5DAD6EAD57
:101420007FAD2F97CE0101960E94FD07CE01019658
:101430000E944807CE0101960E94830761E171E096
:10144000CE0101960E94E108CE0101960E94480754
:10145000CE0101960E94830763964CAD5DAD6EADE3
:101460007FAD6397CE0101960E94FD07CE010196E4
:101470000E944807CE0101960E94830761E171E056
:10148000CE0101960E94E108CE0101960E94480714
:10149000CE0101960E94830767964CAD5DAD6EAD9F
:1014A0007FAD6797CE0101960E94FD07CE010196A0
:1014B0000E944807CE0101960E94830761E171E016
:1014C000CE0101960E94E108CE0101960E944807D4
:1014D000CE0101960E9483076B964CAD5DAD6EAD5B
:1014E0007FAD6B97CE0101960E94FD07CE0101965C
:1014F0000E944807CE0101960E94830761E171E0D6
:10150000CE0101960E94E108CE0101960E94480793
:10151000CE0101960E9483076F964CAD5DAD6EAD16
:101520007FAD6F97CE0101960E94FD07CE01019617
:101530000E944807CE0101960E94830761E171E095
:10154000CE0101960E94E108CE0101960E94480753
:10155000CE0101960E948307A3964CAD5DAD6EADA2
:101560007FADA397CE0101960E94FD07CE010196A3
:101570000E944807CE0101960E94830761E171E055
:10158000CE0101960E94E108CE0101960E94480713
:10159000CE0101960E948307A4966FADA49770E0D8
:1015A000CE0101960E94D107CE0101960E94480704
:1015B000CE0101960E94830761E171E0CE010196A0
:1015C0000E94E108CE0101960E944807CE010196D3
:1015D0000E948307A5966FADA59770E0CE01019696
:1015E0000E94D107CE0101960E944807CE010196C4
:1015F0000E94830761E171E0CE0101960E94E1083B
:10160000CE0101960E944807CE0101960E948307F1
:10161000A6966FADA69770E0CE0101960E94D10705
:10162000CE0101960E944807CE0101960E948307D1
:1016300061E171E0CE0101960E94E108CE010196C0
:101640000E944807CE0101960E948307A7966FADBE
:10165000A79770E0CE0101960E94D107CE010196B6
:101660000E944807CE0101960E94830763E171E062
:10167000CE0101960E94E108CE0101960E94480722
:10168000CE0101960E948307AC960FB6F894DEBF98
:101690000FBECDBFDF91CF911F910F91FF90EF90C3
:1016A000DF90CF90BF90AF909F908F907F906F9082
:1016B0005F904F9008951F920F920FB60F921124D2
:1016C0002F933F938F939F93AF93BF9380918D01FF
:1016D00090918E01A0918F01B091900130918C0179
:1016E00023E0230F2D3758F50196A11DB11D20933E
:1016F0008C0180938D0190938E01A0938F01B09304
:1017000090018091910190919201A0919301B091EB
:1017100094010196A11DB11D8093910190939201B6
:10172000A0939301B0939401BF91AF919F918F913A
:101730003F912F910F900FBE0F901F90189526E8A4
:10174000230F0296A11DB11DD2CF1F920F920FB68B
:101750000F9211242F933F934F935F936F937F9337
:101760008F939F93AF93BF93EF93FF9380917301F8
:1017700090917401A0917501B0917601892B8A2B0B
:101780008B2BC1F190917201809100008927809389
:1017900000008091730190917401A0917501B09146
:1017A0007601181619061A061B069CF4809173011F
:1017B00090917401A0917501B09176010197A109F2
:1017C000B1098093730190937401A0937501B09354
:1017D0007601FF91EF91BF91AF919F918F917F9192
:1017E0006F915F914F913F912F910F900FBE0F908E
:1017F0001F90189580910001E4EEF1E0E4919FEFD5
:1018000090930001E13051F030F0E23069F060E097
:101810000E945902DECF10926E00F9CF90916F00B6
:101820009D7F90936F00F3CF909170009D7F909378
:10183000700091E09093B0009091B100987F946017
:101840009093B1001092B300E2CF1F920F920FB6A7
:101850000F9211248F939F93EF93FF939091010226
:1018600080910002981789F0E0910002F0E0E052C8
:10187000FE4F9081809100028F5F80930002803242
:1018800010F0109200029093C600FF91EF919F918B
:101890008F910F900FBE0F901F9018951F920F926F
:1018A0000FB60F9211242F938F939F93EF93FF9373
:1018B0008091C00082FF0CC08091C600FF91EF9123
:1018C0009F918F912F910F900FBE0F901F901895A1
:1018D0009091C600809177018F3380F480917701D9
:1018E0008F5F20917801281749F3E0917701F0E0AC
:1018F000EE5CFE4F908380937701E0CF80E0F1CFE4
:10190000CF93DF93CDB7DEB7C955D1090FB6F894A1
:10191000DEBF0FBECDBF789484B5826084BD84B530
:10192000816084BD85B5826085BD85B5816085BDDA
:1019300080916E00816080936E0010928100809192
:10194000810082608093810080918100816080931A
:101950008100809180008160809380008091B1003F
:1019600084608093B1008091B00081608093B0006A
:1019700080917A00846080937A0080917A008260FE
:1019800080937A0080917A00816080937A008091C0
:101990007A00806880937A001092C1000E94E10270
:1019A00089E08093800161E00E94A50287E0809336
:1019B0007F0161E00E94A5029E012F5F3F4F590108
:1019C00008E814E99924939486E70E94B201802FD5
:1019D0000E94A8011093BC0090920A019092090104
:1019E0000E94A0018DEE0E94A80180910901813022
:1019F00009F0A5C00E94BB0190E0F501819391938D
:101A00005F010F5F003A01F78B81D82EC12C8981CD
:101A10008C0D9D2D911D909399018093980180E0EC
:101A20009F812D813E81820F931F90939B01809314
:101A30009A0180E09B8529853A85820F931F9093B8
:101A40009D0180939C018F85F82EE12C8D85E80EF9
:101A5000F11CF0929F01E0929E0180E09B89298910
:101A60003A89820F931F9093A1018093A00180E097
:101A70009F892D893E89820F931F9093A3018093A4
:101A8000A20180E09B8D298D3A8D820F931F909348
:101A9000A5018093A40180E09F8D2D8D3E8D820F46
:101AA000931F9093A7018093A60180E09BA129A199
:101AB0003AA1820F931F9093A9018093A80180E01F
:101AC0009FA12DA13EA1820F931F9093AB01809304
:101AD000AA0180E09BA529A53AA5820F931F9093A8
:101AE000AD018093AC0180E09FA52DA53EA5820F9E
:101AF000931F9093AF018093AE0186E70E94B201DD
:101B000084EF0E94A80187E20E94A8011093BC0004
:101B100086E70E94B20185EF0E94A80180EA0E9438
:101B2000A8011093BC000E941E040E941B07609332
:101B3000B0017093B1018093B2019093B3010E9400
:101B4000E10246E06DE188E60E940C0446E06AE1AD
:101B500088E60E940C0440E16BE188E60E940C04D8
:101B600048E06CE188E60E940C0442E067E388E606
:101B70000E940C0446E16AE08CE00E940C04109282
:101B8000C5008FEC8093C40082E08093C00088ED94
:101B90008093C10086E08093C20010927801109279
:101BA0007701109200021092010261E080918001A1
:101BB0000E9459026FEB75E080E090E00E941403F0
:101BC00060E0809180010E94590261E678E480E043
:101BD00090E00E94140385E191E00E94960183E069
:101BE00080937E0160E00E94A50284E080937D01E5
:101BF00060E00E94A50283E180937C0160E00E9486
:101C0000A5028EE08093790160E00E94A5028CE03D
:101C10008093810188E0809382018BE0809383012F
:101C200061E08CE00E94A50261E0809182010E9447
:101C3000A50261E0809183010E94A5028BE191E001
:101C40000E9496010E941E049E012F5F3F4F40E1BB
:101C50006BE388E60E94E90669817A817627672727
:101C60007627719561957109072E000C880B990BE9
:101C70000E94A2136093BC017093BD018093BE01CA
:101C80009093BF016B817C817627672776277195BA
:101C900061957109072E000C880B990B0E94A21305
:101CA0006093C0017093C1018093C2019093C301FE
:101CB0006D817E81762767277627072E000C880B9B
:101CC000990B0E94A2136093C4017093C501809385
:101CD000C6019093C70169857A857627672776279D
:101CE000719561957109072E000C880B990B0E9464
:101CF000A2136093C8017093C9018093CA019093A5
:101D0000CB016B857C857627672776277195619552
:101D10007109072E000C880B990B0E94A213609387
:101D2000CC017093CD018093CE019093CF016D854E
:101D30007E85762767277627072E000C880B990B60
:101D40000E94A2136093D0017093D1018093D201BD
:101D50009093D3019E01275C3F4F41E062E08CE00D
:101D60000E94E90689AD80FFF5CF9E012F5C3F4FB1
:101D700048E063E08CE00E94E9066BA97CA97195BC
:101D800061957109072E000C880B990B0E94A21314
:101D90006093D4017093D5018093D6019093D701BD
:101DA00069A97AA9719561957109072E000C880BB4
:101DB000990B0E94A2136093D8017093D90180936C
:101DC000DA019093DB016DA97EA971956195710986
:101DD000072E000C880B990B0E94A2136093DC0164
:101DE0007093DD018093DE019093DF01E1E0F1E08B
:101DF00004E811E0D80181918D9321E0E930F207E8
:101E0000D1F760E0809182010E94590260E08091E8
:101E100081010E945902F80161918F018091830133
:101E20000E94590261E0809181010E945902F1E013
:101E30000C381F0759F761E0809182010E94590216
:101E40006091BC017091BD018091BE019091BF0174
:101E50008090C0019090C101A090C201B090C301D8
:101E6000C090C401D090C501E090C601F090C701B8
:101E70009B01AC010E9401142B013C01A5019401BE
:101E8000C501B4010E9401149B01AC01C301B20160
:101E90000E94F7144B015C01A7019601C701B6012E
:101EA0000E9401149B01AC01C501B4010E94F7140A
:101EB0000E94AD166B017C010E941B076AAF7BAFCD
:101EC0008CAF9DAF8FB7F89440908D0150908E01EC
:101ED00060908F01709090018FBF65E271E0CE013C
:101EE00001960E94E1081F921F92812CA12C0AAD3D
:101EF0001BAD2CAD3DADB301A201CE0101960E94F8
:101F00005808CE0101960E9483076091B801709134
:101F1000B9018091BA019091BB010E94A013562E85
:101F2000472E382E292E6091B4017091B501809111
:101F3000B6019091B7010E94A01323966FAF23972B
:101F400024967FAF249725968FAF259726969FAF2F
:101F500026972091DC0167962FAF67973091DD01BE
:101F600068963FAF68974091DE0169964FAF6997D9
:101F70005091DF016A965FAF6A978091D8016396AE
:101F80008FAF63979091D90164969FAF6497E0916A
:101F9000DA016596EFAF6597F091DB016696FFAFCA
:101FA00066972091D4012F962FAF2F973091D501AE
:101FB00060963FAF60974091D60161964FAF6197B1
:101FC0005091D70162965FAF62978091D0012B96B6
:101FD0008FAF2B979091D1012C969FAF2C97E091CA
:101FE000D2012D96EFAF2D97F091D3012E96FFAF32
:101FF0002E971091C8010091C9017090CA0160909C
:10200000CB012091C40127962FAF27973091C501AE
:1020100028963FAF28974091C60129964FAF299740
:102020005091C7012A965FAF2A978090C001909087
:10203000C101A090C201B090C301C090BC01D0907A
:10204000BD01E090BE01F090BF010E941B076AAF86
:102050007BAF8CAF9DAF8FB7F89420918D013091FD
:102060008E0140918F015091900122962CAF3DAF8F
:102070004EAF5FAF22978FBF65E271E0CE01019650
:102080000E94E1081F921F921F921F922F923F926F
:102090004F925F9226963FAD26973F9325964FAD80
:1020A00025974F9324965FAD24975F9323968FAD2A
:1020B00023978F936A969FAD6A979F936996EFAD2A
:1020C0006997EF936896FFAD6897FF9367962FAD7A
:1020D00067972F9366963FAD66973F9365964FAD92
:1020E00065974F9364965FAD64975F9363968FADEA
:1020F00063978F9362969FAD62979F936196EFADC2
:102100006197EF936096FFAD6097FF932F962FAD89
:102110002F972F932E963FAD2E973F932D964FAD31
:102120002D974F932C965FAD2C975F932B968FAD89
:102130002B978F936F927F920F931F936F927F9243
:102140000F931F932A969FAD2A979F932996EFADE1
:102150002997EF932896FFAD2897FF9327962FADE9
:1021600027972F930AAD1BAD2CAD3DAD22964CADFC
:102170005DAD6EAD7FAD2297CE0101960E94F20853
:102180000FB6F894DEBF0FBECDBFCE0101960E9400
:10219000830768EC70E080E090E00E94140380E028
:1021A00090E0892B09F44ACD0E94000047CD10929F
:1021B000B0011092B1011092B2011092B3010895D2
:1021C000EF920F931F93CF93DF93E80134E047FD25
:1021D00034E1042E000C550B57FF03C05195419577
:1021E0005109E32E022F242FAE010E945411CE017B
:1021F000DF91CF911F910F91EF900895BB274A3047
:1022000031F4992322F4BDE2909581959F4F0C946F
:102210003B11BB272A3051F4992342F4BDE290953B
:102220008095709561957F4F8F4F9F4F0C9419113A
:10223000BB27FA01A62F6217710581059105330BA3
:1022400030FB66F0AA27660F771F881F991FAA1F09
:10225000A21710F0A21B63953850A9F7A05DAA330E
:1022600008F0A95DA19336F7B111B1931082CA01AC
:102270000C948B13BB27FB015527AA27880F991FA6
:10228000AA1FA41710F0A41B83955051B9F7A05DA5
:10229000AA3308F0A95DA193009779F7B111B19322
:1022A0001192CB010C948B13A9E0B0E0EAE5F1E1C7
:1022B0000C94C5146A01F22EB02E102FFBE3AF2E42
:1022C000A01608F41BE31F5F012F27E0AE014F5F4C
:1022D0005F4F0E94B312BC018981982F9970913091
:1022E00009F43FC09BE2E1FC04C09E2D9170E0FC2C
:1022F0003AC05E2D5071E82FE87083FF46C084E03D
:10230000911101C083E0EF2DE81B8F1508F0E0E08C
:10231000D6018E2F20E2552351F1992329F0D601C1
:102320009C93C60101966C0196012D5F3F4FE2FE22
:1023300024C08EE4D6018C9391E411969C9311975E
:1023400012968C93D9018E2F90E281111BC0E20F5F
:10235000F32FF11D10828EEF9FEF2996ECE00C9485
:10236000E1149DE2C6CF90E2C4CF2D93815081113C
:10237000FCCFCE0ED11CE0E0D0CF8EE6D6018C9300
:1023800091E6DBCF9D938150E0CF482F447082FFD0
:102390003DC084E0911101C083E08F1510F4EF2D52
:1023A000E81BD6018E2F20E2552309F1992329F04D
:1023B000D6019C93C60101966C0196012D5F3F4F9B
:1023C000E2FE1BC089E4D6018C938EE411968C93B7
:1023D000119786E412968C93D9018E2F90E2882370
:1023E00009F4B5CF9D938150FACF2D93815081117F
:1023F000FCCFCE0ED11CE0E0D9CF89E6D6018C937C
:102400008EE611968C93119786E6E4CF9B0177FFB9
:1024100002C030E020E0A1E0B0E0911102C0B0E0E5
:10242000A0E0F9013196AE0FBF1F8B2C912CBB2081
:1024300009F461C05401EFEFAE1ABE0AAA0DBB1D2C
:10244000FA161B0619F014F04F2D4A1B511188C0C3
:10245000E3FC59C07601A42FB0E2A1114FC0C40E15
:10246000D11C992309F45BC040E0D6011196F60116
:1024700090836D01552309F448C0012F060F9A81FE
:10248000582F507184FF03C0913309F40150101686
:102490000CF047C0093008F008E0EEE2FE2E5B01C8
:1024A000A01AB10885019194819491082F3F3207B9
:1024B00029F4D601FC92F60131966F016217730779
:1024C00094F1021713077CF5DB01A21BB30BAA24BE
:1024D000A394B12CAC0EBD1EAA0DBB1D11968C9100
:1024E00021503109D601119628153905F4F0F6016D
:1024F00080836D01DBCFB12CA12CA0CFF701B1936C
:102500007F01A150AACF9111B0CFD601942F50E3F3
:1025100002C05D9391509111FCCFC40ED11C40E0DC
:10252000ACCF01E0BACF80E3DBCF6217730731F4A1
:10253000963388F4953311F4552369F0F6018083BE
:10254000FD01842F90E2811108C0A40FB11D1C92DF
:1025500090E080E002CF81E3F1CF91938150F3CFFF
:10256000911183CF8ACF283008F027E03327DA0192
:10257000990F311D87FD916000966105710539F451
:1025800032602E5F3D9330E32A95E1F708959F3F37
:1025900030F080387105610509F03C5F3C5F3D9388
:1025A000913008F08068911DDF93CF931F930F93B4
:1025B000FF92EF92192F987F9695E92F9695969511
:1025C000E90FFF27EC5BFE4F99273327EE24FF240A
:1025D000A701E70105900894079428F4360FE71E39
:1025E000F81E491F511D660F771F881F991F0694FB
:1025F000A1F70590079428F4E70EF81E491F561F0F
:10260000C11D770F881F991F661F0694A1F70590BB
:10261000079428F4F80E491F561FC71FD11D880FB5
:10262000991F661F771F0694A1F70590079420F461
:10263000490F561FC71FD81F990F661F771F881F86
:102640000694A9F784911095177041F0D695C79517
:1026500057954795F794E7941A95C1F7EAEEF0E09D
:1026600068941590159135916591959105907FE24B
:102670007395E118F10A430B560BC90BD009C0F74B
:10268000E10CF11E431F561FC91FD01D7EF470338D
:1026900011F48A95E6CFE894015030F0080F0AF45F
:1026A0000027021708F4202F2395022F7A3328F0F1
:1026B00079E37D932A95E9F710C07D932A9589F6F1
:1026C000069497956795379517951794E118F10A31
:1026D000430B560BC90BD00998F023957E91739547
:1026E0007A3308F070E37C932013B8F77E91706121
:1026F0007D9330F0839571E37D9370E32A95E1F744
:102700001124EF90FF900F911F91CF91DF919927A6
:1027100087FD90950895DC01FC01672F7191772367
:10272000E1F7329704C07C916D9370836291AE178C
:10273000BF07C8F308950E94DD1308F481E00895EF
:10274000E89409C097FB3EF490958095709561954B
:102750007F4F8F4F9F4F9923A9F0F92F96E9BB2701
:102760009395F695879577956795B795F111F8CF7D
:10277000FAF4BB0F11F460FF1BC06F5F7F4F8F4FE8
:102780009F4F16C0882311F096E911C0772321F0DE
:102790009EE8872F762F05C0662371F096E8862F76
:1027A00070E060E02AF09A95660F771F881FDAF7CD
:1027B000880F9695879597F90895990F0008550FFA
:1027C000AA0BE0E8FEEF16161706E807F907C0F0B7
:1027D00012161306E407F50798F0621B730B840BBF
:1027E000950B39F40A2661F0232B242B252B21F499
:1027F00008950A2609F4A140A6958FEF811D811D39
:1028000008950E9414140C9485140E94771438F0D3
:102810000E947E1420F0952311F00C946E140C94F9
:10282000741411240C94B9140E94961470F3959F9B
:10283000C1F3950F50E0551F629FF001729FBB27B7
:10284000F00DB11D639FAA27F00DB11DAA1F649F53
:102850006627B00DA11D661F829F2227B00DA11D06
:10286000621F739FB00DA11D621F839FA00D611D8C
:10287000221F749F3327A00D611D231F849F600DAD
:10288000211D822F762F6A2F11249F5750409AF0D6
:10289000F1F088234AF0EE0FFF1FBB1F661F771F62
:1028A000881F91505040A9F79E3F510580F00C942D
:1028B0006E140C94B9145F3FE4F3983ED4F38695FC
:1028C00077956795B795F795E7959F5FC1F7FE2BCD
:1028D000880F911D9695879597F9089597F99F67A9
:1028E00080E870E060E008959FEF80EC0895002498
:1028F0000A941616170618060906089500240A9465
:1029000012161306140605060895092E0394000CEA
:1029100011F4882352F0BB0F40F4BF2B11F460FF79
:1029200004C06F5F7F4F8F4F9F4F089557FD9058A2
:10293000440F551F59F05F3F71F04795880F97FB83
:10294000991F61F09F3F79F087950895121613063D
:102950001406551FF2CF4695F1DF08C0161617066C
:102960001806991FF1CF86957105610508940895A1
:10297000E894BB2766277727CB0197F908952F9214
:102980003F924F925F926F927F928F929F92AF92FF
:10299000BF92CF92DF92EF92FF920F931F93CF934C
:1029A000DF93CDB7DEB7CA1BDB0B0FB6F894DEBFE3
:1029B0000FBECDBF09942A88398848885F846E8409
:1029C0007D848C849B84AA84B984C884DF80EE8053
:1029D000FD800C811B81AA81B981CE0FD11D0FB65C
:1029E000F894DEBF0FBECDBFED0108955058BB2750
:1029F000AA270E940E150C9485140E94771438F0B3
:102A00000E947E1420F039F49F3F19F426F40C94B0
:102A100074140EF4E095E7FB0C946E14E92F0E94F9
:102A2000961458F3BA17620773078407950720F0C6
:102A300079F4A6F50C94B8140EF4E0950B2EBA2F89
:102A4000A02D0B01B90190010C01CA01A0011124B4
:102A5000FF27591B99F0593F50F4503E68F11A1660
:102A6000F040A22F232F342F4427585FF3CF4695F1
:102A700037952795A795F0405395C9F77EF41F1613
:102A8000BA0B620B730B840BBAF09150A1F0FF0FDD
:102A9000BB1F661F771F881FC2F70EC0BA0F621FC9
:102AA000731F841F48F4879577956795B795F795B9
:102AB0009E3F08F0B0CF9395880F08F09927EE0F4E
:102AC0009795879508950E9477150C9485140E9418
:102AD0007E1458F00E94771440F029F45F3F29F0EB
:102AE0000C946E1451110C94B9140C9474140E942B
:102AF000961468F39923B1F3552391F3951B550B65
:102B0000BB27AA2762177307840738F09F5F5F4FC0
:102B1000220F331F441FAA1FA9F335D00E2E3AF0FF
:102B2000E0E832D091505040E695001CCAF72BD017
:102B3000FE2F29D0660F771F881FBB1F2617370768
:102B40004807AB07B0E809F0BB0B802DBF01FF279A
:102B500093585F4F3AF09E3F510578F00C946E14F5
:102B60000C94B9145F3FE4F3983ED4F386957795BF
:102B70006795B795F7959F5FC9F7880F911D969553
:102B8000879597F90895E1E0660F771F881FBB1FAF
:102B9000621773078407BA0720F0621B730B840B5C
:102BA000BA0BEE1F88F7E0950895BEE304D008F451
:102BB00090E80895BFE322273327A9010E949E14BD
:102BC00060F19F5748F1B91740F1BFE3B91B99274E
:102BD000B8503AF4660F771F881F991FB395D2F348
:102BE00016C0B8504AF0232F342F452F562F672F89
:102BF000782F8827B850BAF7B85F49F0869577954F
:102C000067955795479537952795BA95B9F716F46F
:102C10000E94471688940895889460E070E0CB0184
:102C200008950E9418166894B1110C94B91408956F
:102C30000E949E1488F09F5798F0B92F9927B7519A
:102C4000B0F0E1F0660F771F881F991F1AF0BA9550
:102C5000C9F714C0B13091F00E94B814B1E00895E2
:102C60000C94B814672F782F8827B85F39F0B93FD4
:102C7000CCF3869577956795B395D9F73EF4909503
:102C80008095709561957F4F8F4F9F4F08959095D8
:102C900080957095609550954095309521953F4F62
:102CA0004F4F5F4F6F4F7F4F8F4F9F4F0895FA01E8
:102CB000EE0FFF1F309621053105A1F16115710559
:102CC00061F48038BFE39B0749F16894903881052F
:102CD00061F08038BFEF9B0741F099234AF5FF3F31
:102CE000E1053105210519F1E8940894E795D9012A
:102CF000AA2329F4AB2FBE2FF85FD0F310C0FF5FDB
:102D000070F4A695E0F7F73950F019F0FF3A38F46F
:102D10009F779F930DD00F9007FC9058089546F031
:102D20000C94741460E070E080E89FE308954FE72E
:102D30009F775F934F933F932F930E94AD172F91EF
:102D40003F914F915F910E9401140C94F51619F474
:102D500016F40C9474140C9427170E949E14B8F364
:102D60009923C9F3B6F39F57550B87FF0E94351778
:102D70000024A0E640EA900180585695979528F4E3
:102D8000805C660F771F881F20F0261737074807DB
:102D900030F4621B730B840B202931294A2BA69532
:102DA00017940794202531254A2758F7660F771F77
:102DB000881F20F026173707480730F4620B730B83
:102DC000840B200D311D411DA09581F7B901842F81
:102DD0009158880F96958795089529F416F00C94CC
:102DE0006E140C94B8140C9474140E949E14A8F3DE
:102DF0009638A0F707F80F92E8942BE33AEA48EBED
:102E00005FE70E9417140F920F920F924DB75EB7B3
:102E10000F920E94F517E8E6F0E00E943C174F91F0
:102E20005F91EF91FF91E595EE1FFF1F49F0FE576F
:102E3000E0684427EE0F441FFA95E1F74195550BE2
:102E40000E946F170F9007FE0C94631708959F3F21
:102E500031F0915020F4879577956795B795880F55
:102E6000911D9695879597F9089591505040660F5A
:102E7000771F881FD2F70895DF93CF931F930F9387
:102E8000FF92EF92DF927B018C01689406C0DA2EEC
:102E9000EF010E941414FE01E894A591259135914B
:102EA00045915591A6F3EF010E940E15FE01970181
:102EB000A801DA9469F7DF90EF90FF900F911F91CE
:102EC000CF91DF9108959B01AC0160E070E080E854
:102ED0009FE30C9463150C946E140C9427170E94B6
:102EE0009E14D8F39923C9F3940F511DA3F3915065
:102EF000504094F059F0882332F0660F771F881FF6
:102F000091505040C1F79E3F51052CF7880F911DFD
:102F10009695879597F908955F3FACF0983E9CF0A1
:102F2000BB27869577956795B79508F4B16093951B
:102F3000C1F7BB0F58F711F460FFE8CF6F5F7F4F09
:102F40008F4F9F4FE3CF0C94B91416F00C942717B2
:102F50000C94741468940C946E140E949E14A8F33C
:102F60009923C1F3AEF3DF93CF931F930F93FF9297
:102F7000C92FDD2788232AF02197660F771F881F26
:102F8000DAF720E030E040E85FEB9FE3883920F09B
:102F9000803E38F021968F770E94F714E0E9F0E048
:102FA00004C00E94F714EDEBF0E00E943C178B0187
:102FB000BE01EC01FB2E6F5771097595771F880BC9
:102FC000990B0E94A21328E132E741E35FE30E94DC
:102FD0001414AF2D9801AE01FF900F911F91CF9166
:102FE000DF910E940E150C948514FA01DC01AA0FE2
:102FF000BB1F9B01AC01BF5728F42227332744276E
:10300000507820C0B75190F4AB2F002446953795E7
:103010002795011CA395D2F3002071F0220F331FD6
:10302000441FB395DAF30ED00C94F6146130710599
:10303000A0E88A07B94630F49B01AC0166277727E0
:1030400088279078309621F0208331834283538300
:103050000895A1E21A2EAA1BBB1BFD010DC0AA1FD9
:10306000BB1FEE1FFF1FA217B307E407F50720F0F1
:10307000A21BB30BE40BF50B661F771F881F991F6C
:103080001A9469F760957095809590959B01AC01B5
:10309000BD01CF010895EE0FFF1F0590F491E02DC3
:1030A00009940F931F93CF93DF938230910510F40F
:1030B00082E090E0E0910402F091050230E020E02F
:1030C000B0E0A0E0309799F42115310509F44AC029
:1030D000281B390B24303105D8F58A819B81611575
:1030E000710589F1FB0193838283FE0111C0408148
:1030F00051810281138148175907E0F04817590799
:1031000099F4109761F012960C93129713961C93F2
:103110003296CF01DF91CF911F910F9108950093C7
:10312000040210930502F4CF2115310551F0421726
:10313000530738F0A901DB019A01BD01DF01F80155
:10314000C1CFEF01F9CF9093050280930402CDCF58
:10315000FE01E20FF31F81939193225031093983CD
:103160002883D7CF2091020230910302232B41F410
:1031700020910D0130910E01309303022093020241
:1031800020910B0130910C012115310541F42DB72F
:103190003EB740910F0150911001241B350BE09177
:1031A0000202F0910302E217F307A0F42E1B3F0B7B
:1031B0002817390778F0AC014E5F5F4F24173507A9
:1031C00048F04E0F5F1F5093030240930202819319
:1031D00091939FCFF0E0E0E09CCFCF93DF930097F7
:1031E000E9F0FC01329713821282A0910402B0919F
:1031F0000502ED0130E020E01097A1F4208131813B
:10320000820F931F20910202309103022817390781
:1032100009F061C0F0930302E0930202DF91CF91C5
:103220000895EA01CE17DF07E8F54A815B819E0128
:1032300041155105B1F7E901FB83EA8349915991A1
:10324000C40FD51FEC17FD0761F4808191810296B0
:10325000840F951FE90199838883828193819B83E1
:103260008A83F0E0E0E012968D919C91139700978D
:10327000B9F52D913C911197CD010296820F931FC4
:1032800020910202309103022817390739F630974E
:1032900051F51092050210920402B0930302A0931C
:1032A0000202BCCFD383C28340815181840F951F1A
:1032B000C817D90761F44E5F5F4F88819981480F25
:1032C000591F518340838A819B8193838283211577
:1032D000310509F0B0CFF0930502E09304029ECFD0
:1032E000FD01DC01C0CF13821282D7CFB0E0A0E095
:1032F000ECE7F9E10C94C1148C01009751F4CB0177
:103300000E9451188C01C801CDB7DEB7E0E10C94E2
:10331000DD14FC01E60FF71F9C0122503109E21772
:10332000F30708F49DC0D901CD91DC911197C61720
:10333000D70798F0C530D10530F3CE010497861732
:10334000970708F3C61BD70B2297C193D1936D93B0
:103350007C93CF010E94ED18D6CF5B01AC1ABD0A59
:103360004C018C0E9D1EA0910402B0910502512CBF
:10337000412CF12CE12C109731F5809102029091B3
:1033800003028815990509F05CC04616570608F037
:1033900058C080910B0190910C01009741F48DB7BA
:1033A0009EB740910F0150911001841B950BE817B7
:1033B000F90708F055C0F0930302E0930202F90107
:1033C00071836083A0CF8D919C91119712966C9020
:1033D000129713967C901397A815B90559F56C01AF
:1033E00042E0C40ED11CCA14DB0420F1AC014A191E
:1033F0005B09DA011296159780F06282738251831D
:103400004083D9016D937C93E114F10471F0D701ED
:103410001396FC93EE93129776CF22968C0F9D1FF6
:10342000F90191838083F301EFCFF0930502E093DC
:10343000040269CF4816590608F42C017D01D30116
:103440009ACFCB010E9451187C01009749F0AE0140
:10345000B8010E94331AC8010E94ED18870153CFAA
:1034600010E000E050CFFB01DC0102C001900D92A2
:1034700041505040D8F70895FB01DC0101900D92B6
:0A3480000020E1F70895F894FFCF53
:10348A00FF010100000000000000010000060280A8
:10349A00003B000A00426567696E004D65617375FD
:0834AA0072696E6700413100F8
:00000001FF
